:020000040800F2
:100000001014002001010008291000082B1000081E
:100010002F100008331000083710000800000000FF
:100020000000000000000000000000003D1000087B
:100030003B100008000000003F10000841100008BD
:100040004310000845100008471000084910000838
:100050005B1000085D1000085F10000861100008C8
:1000600063100008651000086710000817010008F9
:100070001701000817010008170100081701000800
:10008000170100081701000817010008791000087F
:100090007B1000087D1000087F1000088110000808
:1000A00083100008851000088710000889100008D8
:1000B0008B1000088D1000088F1000089F1000089A
:1000C000A1100008A3100008A5100008A710000840
:1000D000A9100008AB1000083D110008B11100087C
:1000E000DB1100081712000819120008DFF80CD005
:1000F00002F006F800480047110F00081014002015
:1001000005480047FEE7FEE7FEE7FEE7FEE7FEE7FD
:10011000FEE7FEE7FEE7FEE7ED00000810B502F09F
:1001200089FC102002F074FB022002F07DFB00200D
:1001300002F008FD4FF4806002F018FD4FF480607B
:1001400002F00AFD4FF4E011002002F01FFD012033
:1001500002F016FD00BF392002F0D4FC0028FAD0CE
:10016000022002F01DFD00BF02F0E4FC0828FBD1D4
:1001700010BD08B54FF4C06002F024FC25208DF8B6
:10018000000001208DF801008DF802008DF80300B9
:10019000684602F0DDFB26208DF8000001208DF876
:1001A00002008DF80300684602F0D2FB27208DF88C
:1001B000000001208DF802008DF80300684602F06F
:1001C000C7FB12208DF8000000208DF801008DF88B
:1001D000020001208DF80300684602F0B9FB08BD5B
:1001E0000EB542F20F70ADF8040040F60F60ADF8A6
:1001F00000000020ADF80600ADF8020069464FF09F
:10020000804002F055FD0121880702F0F4FC012234
:100210001146900702F0FDFC0121880702F0EEFC78
:100220000220ADF804002320ADF800000020ADF856
:100230000600ADF802006946F94802F039FD0121D7
:10024000F74802F0D8FC01221146F54802F0E1FC23
:100250000121F34802F0D2FC0EBD08B501211420A3
:1002600002F0DCFB4FF49150ADF8000003208DF854
:10027000020010208DF803006946EA4802F0E0FA17
:100280002021E84802F059FB4FF40071E54802F0E4
:1002900054FB4FF48051E34802F04FFB4FF4807061
:1002A000ADF8000003208DF8020010208DF8030047
:1002B0006946DD4802F0C4FA4FF48071DA4802F072
:1002C0003AFB08BD00B585B04FF48060ADF8000082
:1002D00004208DF803006946D34802F0B1FA0820E3
:1002E000ADF800006946D04802F0AAFA4FF4007059
:1002F000ADF8000003208DF8020018208DF80300EF
:100300006946C94802F09CFA0420ADF8000069462D
:10031000C54802F095FA4FF4E13001900020ADF8A5
:100320000800ADF80A00ADF80C00ADF810000C2084
:10033000ADF80E0001A9BD4802F026FD01A9BC4898
:1003400002F022FD012240F22551B84802F004FDDE
:10035000012240F22771B54802F0FEFC012240F272
:100360002551B34802F0F8FC012240F22771B04851
:1003700002F0F2FC0121AD4802F0BEFC0121AC48C4
:1003800002F0BAFC4021A94802F0C0FC4021A84874
:1003900002F0BCFC05B000BD00B585B0012144F2FF
:1003A000040002F03BFB4FF40070ADF81000182081
:1003B0008DF8130003208DF8120004A99A4802F06A
:1003C0003FFA4FF48060ADF8100004208DF8130060
:1003D00004A9954802F034FA4FF4E130009000206F
:1003E000ADF80400ADF80600ADF80800ADF80C005B
:1003F0000C20ADF80A0069468C4802F0C5FC0121CA
:100400008A4802F079FC05B000BD30B589B00546D8
:100410000C460121022002F0F5FA0121082002F029
:10042000FDFA0120ADF8200018208DF823000320EC
:100430008DF8220008A97F4802F002FAADF81850A2
:10044000ADF814400020ADF81A00ADF8160005A96B
:10045000794802F02DFC6020ADF804000020ADF8D2
:100460000C000120ADF806000020ADF80A0001A93B
:10047000714802F0D7FB08216F4802F00FFC012100
:100480006D4802F0ADFB01216B4802F0B7FB09B0EB
:1004900030BD30B589B005460C460121084602F052
:1004A000B1FA0121092002F0B9FA0121634802F0F2
:1004B00017FA4FF48060ADF8200018208DF8230063
:1004C00003208DF8220008A95A4802F0B9F9ADF8C6
:1004D0001850ADF814400020ADF81A00ADF8160021
:1004E00005A94FF0804002F0E3FB6020ADF8040066
:1004F0000020ADF80C000120ADF806000020ADF89A
:100500000A0001A94FF0804002F08CFB0821C806C8
:1005100002F0C4FB0121880702F062FB0121880779
:1005200002F06CFB09B030BD00B591B001214FF471
:10053000017002F073FA0121084602F057FA042014
:10054000ADF8400000208DF8430010A9364802F0B5
:1005500077F93B4802F0BAF83A4805903A480690D5
:100560000020079001200890002009900A904FF485
:1005700080700B9080000C9020200D9000020E9057
:1005800000200F9005A92E4802F010F901212C48F7
:1005900002F092F8002000908DF8040001208DF800
:1005A00005004FF4602002900020039001208DF898
:1005B0001000694623484C3802F00CF84FF4804094
:1005C00002F00AFA01231A4602211E484C3802F0B2
:1005D00025F801211B484C3801F0E3FF012119489F
:1005E0004C3801F0D4FF17484C3802F051F800BFE6
:1005F00014484C3801F0E6FF0028F9D111484C3876
:1006000002F055F800BF0F484C3801F0D4FF002825
:10061000F9D101210B484C3802F03FF811B000BD70
:10062000000800400010014000080140003801406F
:1006300000440040000C014000040040000218008B
:10064000080002404C240140580000202DE9FC5FC6
:10065000FE49888801F0FDFA82464FF06632FC4B75
:1006600001F008FA80460022FA4B01F003FA064630
:100670000022F94B01F070FA04460022F74B01F01A
:100680006BFACDE9000101F04AFBF5490860EF493A
:10069000C88801F0DEFA80464FF06632EC4B01F07C
:1006A000E9F906460022ED4B01F056FA044601F046
:1006B00036FBEC4908600846006801F01DFBEA4A79
:1006C000EA4BCDE9000101F0D2F906460022E84BE1
:1006D00001F0D0F980460022E64B01F03DFA0446D5
:1006E0000022E54B01F01FF9824601F018FBDD49BD
:1006F0000860BDE8FC9F014607E0002002E000BF63
:10070000421C90B2B0F5616FF9DB0A00A1F1010360
:1007100099B2F2D170472DE9F0410446FFF796FFF8
:1007200040F6B83084427DDA204601F08DFA074663
:10073000CB480168384601F07AF8064601F096FA8F
:10074000051E01DB284600E0684205286ADDC44832
:100750000168CA48006801F06AF8064601F086FAA6
:10076000051E01DB284600E068420528DBDA20464A
:1007700001F06AFA0546BA480168284601F0F6FA1F
:1007800071D2204601F060FA0646B548016830464D
:1007900001F04DF80546BA4901F0E8FA20D2B4F567
:1007A0007A7F07DDB749B848006800F0EEFFB64928
:1007B000086007E04FF08041B348006800F0E5FFB3
:1007C000B1490860B149B048006801F036F8064602
:1007D00001F065FA85B22946AD4802F065FABAE043
:1007E000204601F031FA06469D480168304601F086
:1007F0001EF80546A74901F0B9FA17D24FF07E510D
:10080000A148006800F0C1FF9F4908609F499E48C9
:10081000006801F012F8064601F041FA85B2294657
:100820009B4800E09BE002F03FFA94E096480068A5
:1008300001F062FA0546984A984B01F074F80746B1
:1008400001F06DFA9049086090498F48006800F007
:10085000F4FF064601F023FA85B229468C4802F0DF
:1008600023FA78E0FFE7204601F0EEF905467C48E0
:100870000168284601F070FA6DD2204601F0E4F9D3
:10088000064677480168304600F0D4FF05467C49AB
:1008900001F06CFA20D2B4F57A7F07DD79497A4805
:1008A000006800F0C4FF7849086007E04FF080411D
:1008B0007548006800F0BBFF7349086073497248CF
:1008C000006800F0BAFF064601F0E9F985B2294652
:1008D0006F4802F0E9F93EE0204601F0B5F906461E
:1008E0005F480168304600F0A5FF0546694901F000
:1008F0003DFA15D24FF07E516348006800F097FF33
:100900006149086061496048006800F096FF06464A
:1009100001F0C5F985B229465D4802F0C5F91AE033
:100920005948006801F0E8F905465B4A5B4B01F065
:100930009BF8074601F0F3F95349086053495248C0
:10094000006800F07AFF064601F0A9F985B2294651
:100950004F4802F0A9F9524800885249088052498C
:100960004948006801F002FA09D34D4800884D4912
:100970000988401A0A2805DD4A48008810B100207D
:1009800048490880364800683C490860BDE8F08165
:100990002DE9F8432D480088ADF800002B48408829
:1009A000ADF80200BDF80210BDF80000C830814269
:1009B0004ADD3E480088002847D1BDF802003C4986
:1009C0000988884204DBBDF80200394908808EE0BE
:1009D0003748008801F038F981464FF08B4100F02C
:1009E00062FF044601F088F907464FF06632184B63
:1009F00001F040F8054601F092F92E490A7809788D
:100A0000491C2C4B19702C4941F8220018460078DB
:100A1000092802DD00201946087025480088802139
:100A2000C1EB201022490880084600882349097834
:100A3000884256DD1E48008821490978884250DAEC
:100A400020481B4909883FE056E05CE05000002048
:100A500066660A40286EF84000A050400000B04092
:100A60006400002068000020E17A14AE47E1F63F00
:100A70000088C34000804540000039404400002009
:100A80000000C8420000A04070000020000020418B
:100A900000040040000048429A9999999999B93FF9
:100AA0006000002040000020000070424A0000204A
:100AB0004800002074000020E402002028000020EC
:100AC00029000020D000002050F82100401CF849E7
:100AD000F84A128841F82200F7480068401CF6499D
:100AE00008600020F34908800120F44908800221B1
:100AF000F34801F022FF06E00020F04908800221BF
:100B0000EF4801F018FFBDE8F88370B504460D46C4
:100B1000E1B2EC4802F080F900BF4021E94802F060
:100B2000F5F80028F9D0204670BD10B52021E64820
:100B300001F001FF0A20FFF7DEFD6421E34802F027
:100B4000B5F84FF47A70FFF7D6FD2021DE4801F0AA
:100B5000F4FE0A20FFF7CFFD10BD2DE9F04F87B05E
:100B6000054600240026A146FFF7DFFF00BFF8E09E
:100B70002146D64802F09AF81E20FFF7BCFD002659
:100B800029E0D348008801F05FF883464FF08B419D
:100B900000F089FE824601F0AFF84FF06632CD4B8F
:100BA000CDE9000100F066FF07468846CA480068A4
:100BB00001F0A2F83A464346CDE9020100F0B3FE47
:100BC000CDE9040101F0ABF8C34908600220FFF74A
:100BD00092FD701C86B20A2ED3DBC049BE48006865
:100BE00000F061FEBE4908600020BB49086040F289
:100BF000DE30844215DB2021B34801F09CFE0A2040
:100C0000FFF779FD6421B14802F050F841F28830D5
:100C1000FFF771FD2021AC4801F08FFE0A20FFF79D
:100C20006AFDA5F1960001F006F80746AD49AC480B
:100C3000006800F002FE8046394601F097F877D24E
:100C4000284601F001F80746A649A548006800F0CB
:100C5000F4FD8046394601F07FF87FD80020A24994
:100C6000086000BF601C84B22146984802F01EF85C
:100C70000A20FFF740FD4FF0000929E09448008862
:100C800000F0E2FF4FF08B41009000F00CFE01906D
:100C900001F032F807464FF066328E4B00F0EAFE64
:100CA000CDE904018C48006801F026F8CDE9020185
:100CB000DDE9042300F037FE824601F030F8864972
:100CC00008600120FFF717FD09F101001FFA80F904
:100CD000B9F10A0FD2DB81497F48006800F0E3FDDB
:100CE0007F4908607F497E48006800F0A6FD824683
:100CF00001F002F807463A460B4621467BA002F077
:100D00008FF800207449086076497548006800F043
:100D100094FD8246284600F097FF8346514600F036
:100D200086FD804600F0A2FF071E02DB384601E088
:100D300014E07842032800DC0EE005F1140000F016
:100D40007AFF074667496648006800F076FD8046EE
:100D5000394601F001F885D900BF06E004F10A0028
:100D600084B2B4F57A7FFFF603AF00BF07B0BDE8E9
:100D7000F08F2DE9FF5F4FF0000AD3464FF0640A71
:100D800090E05146514801F091FF3220FFF7B3FC4B
:100D90004FF0000B29E04E48008800F055FF4FF05F
:100DA0008B41009000F07FFD019000F0A5FF4FF017
:100DB0006632484BCDE9020100F05CFE8046894670
:100DC0004548006800F098FF064642464B4600F052
:100DD000AAFD044600F0A3FF3F4908600120FFF789
:100DE0008AFC0BF101001FFA80FBBBF1320FD2DB52
:100DF00041493948006800F056FD39490860BAF1A8
:100E0000640F0FD137493648006800F016FD0646DA
:100E100000F072FF044622460B46514637A001F00F
:100E2000FFFF21E0AAF54070DE380FD12D492C4894
:100E3000006800F002FD064600F05EFF0446224610
:100E40000B4651462DA001F0EBFF0DE0254924484B
:100E5000006800F0F2FC064600F04EFF0446224611
:100E60000B4629A001F0DCFF00201B49086040F27E
:100E7000DE30824512DB2021134801F05CFD0021A9
:100E8000124801F013FF41F28830FFF734FC2021B3
:100E90000D4801F052FD6420FFF72DFC0AF101001E
:100EA0001FFA80FABAF57A7FFFF66BAFBDE8FF9FB5
:100EB000D0000020480000204C0000204A00002004
:100EC000000C0140003801400010014000040040C7
:100ED0005800002066660A405C00002000002041A7
:100EE0003000002000407A44340000202564202592
:100EF00066200D0A00000000000048422564202002
:100F00002566200D0A00000025660D0A000000007D
:100F1000FFF704F9FFF72DF9FFF73EFAFFF79DF908
:100F2000002140F2E730FFF770FA41F2873142F2D8
:100F30000F70FFF7AEFA40F6B7314FF0804001F086
:100F4000B5FEFFF7F1FA37E0FFF7EFFD41F2883029
:100F5000FFF7D1FBFFF70DFF41F28830FFF7CBFB26
:100F60004FF44870FFF7F9FD14491548006800F088
:100F700064FC064600F0C0FE044622460B4611A063
:100F800001F04EFF41F28830FFF7B5FB40F6282014
:100F9000FFF7E3FD09490A48006800F04EFC0646E9
:100FA00000F0AAFE044622460B4613A001F038FFCB
:100FB00041F28830FFF79FFBC6E7000000407A440B
:100FC00030000020CAFDBEDDC7F7CFF2CBF9D0E874
:100FD000D6B53131313131A35F5F5F5F5F5F5F5FF6
:100FE0005F5F5F5F5F5F5F5F5F5F5F5F5F5F5F5F11
:100FF0002566200D0A000000CAFDBEDDC7F7CFF24E
:10100000CBF9D0E8D6B5A35F5F5F5F5F5F5F5F5FDF
:101010005F5F5F5F5F5F5F5F5F5F5F5F5F5F5F251A
:1010200066200D0A00000000704700BFFEE700BF09
:10103000FEE700BFFEE700BFFEE77047704770475E
:10104000704770477047704710B5012001F0BAFD36
:1010500010B1012001F0AEFD10BD70477047704720
:1010600070477047704770477047704770477047C8
:1010700070477047704770477047704770477047B8
:10108000704770477047704770477047704710B59A
:1010900001216A4801F0AFFDFFF77AFC10BD7047EF
:1010A0007047704770477047704770B540F22551E0
:1010B000634801F032FE0546002D38D0604801F04B
:1010C000A7FEC4B240F225515D4801F00FFE5D4815
:1010D000007810BB5C480088FF2809D100205A49DD
:1010E00008800888411C584A118058490C5424E053
:1010F000564855490988405C0D280FD10A2C0DD15E
:1011000001205049087050480088401C80B24E4968
:1011100008804E490C5400F0FAF90EE04A48008865
:10112000401C80B24849088048490C5405E0002220
:1011300040F22771424801F00FFE70BD70B540F2D9
:101140002551434801F0E9FD054655B3404801F0FB
:101150005FFEC4B240F225513D4801F0C7FD394859
:10116000007820BB38480088B0F5807F02D100208D
:10117000354908800A2C0CD133480088401E334979
:10118000085C0D2805D13048008810B101202D4998
:1011900008702D490888411C2B4A11802B490C549A
:1011A00005E0002240F22771294801F0D5FD70BD0D
:1011B00010B540F22551274801F0AFFD04462CB18F
:1011C00040F22551234801F091FD05E0002240F254
:1011D0002771204801F0C0FD10BD70B54FF480505C
:1011E00001F008FBB0B1002409E0002503E001F0A4
:1011F000A7FB681CC5B2FF2DF9DB601CC4B20A2C2A
:10120000F3DB4FF48051144801F08EFB4FF4805013
:1012100001F0EAFA70BD7047704770477047704739
:101220007047704770477047704770477047704706
:10123000704770477047704770477047000800401C
:1012400000380140C2000020C00000200C03002034
:101250000044004000480040000C0140014609E005
:101260000278602A05DD02787B2A02DA0278203AC9
:101270000270401C0278002AF2D1084670472DE91E
:10128000FC5F83465846FFF7E9FF83464FF00009AD
:101290000EE009EB4900A64A02EB8001584600F037
:1012A00055FA044604B106E009F1010000F0FF0917
:1012B000B9F1060FEDDB00BFB9F1060F71DA9D48F9
:1012C00080F80090007806286CD2DFE800F0030771
:1012D0006C91B0F298A001F0A3FD12E1E41C20781B
:1012E0000D2812D19F48006800F006FD05460E4605
:1012F0009D48006800F000FD07463A460B469BA05B
:10130000CDE9005601F08CFD4AE0641C204602F055
:1013100010FA054600F003FD9349086098A12046A5
:1013200000F014FA0446641C204602F002FA054656
:1013300000F0F5FC8B4908604FF07E518A48006848
:1013400000F014FD29D800218648006800F00EFD49
:1013500023D8854801688B4800F0A5FA07464FF06E
:101360007E5100F064FA064600F099FC85B22946E9
:1013700040F2E730FFF749F883497A48006800F007
:101380005CFA064600F08BFC85B229467F4801F0E6
:101390008BFC7FA001F044FD02E07FA001F040FD46
:1013A000AFE0AFE0A9E00A3420780D2808D16078DA
:1013B0000A2805D17A4801887AA001F031FD16E0AB
:1013C000641C204600F0D4F975490880084600885E
:1013D0006438000242F2107190FBF1F01FFA80FABB
:1013E0000AF0FF0000F099F969A001F019FD88E00A
:1013F000E41D20780D280DD160780A280AD16C48A8
:10140000006800F079FC05462A460B4669A001F009
:1014100007FD0BE0641C204602F08BF9054600F046
:101420007EFC634908605AA001F0FAFC69E0241DC3
:1014300020780D280DD160780A280AD15F4800680D
:1014400000F05AFC05462A460B465AA001F0E8FC7B
:101450002DE0641C204602F06CF9054600F05FFCAC
:101460005649086056495548006800F07FFC03D291
:1014700049A001F0D5FC1AE050480168514800F03D
:10148000DCF9054600F00BFC454908800846008859
:101490006438000242F2107190FBF1F01FFA80FAFA
:1014A0000AF0FF0000F039F939A001F0B9FC28E09A
:1014B000FFE7093420780D2807D1434802784348D4
:1014C000017843A001F0ACFC16E0641C204600F05B
:1014D0004FF93E4908702AA1204600F037F904462A
:1014E000641C204602F025F9054600F0ECFB364965
:1014F000087027A001F094FC03E038A001F090FCF4
:1015000000BF02E035A001F08BFCBDE8FC9F10B5E8
:101510003648FFF7B4FE002404E024203349085580
:10152000601C84B2FF2CF8DD00203149087010BD2A
:1015300076000020BE00002048454C502C564F4CF1
:10154000544147452C4741494E2C54485245534835
:101550004F4C442C50574D2C524553495354414EF7
:1015600043450000700000206C000020252E3166ED
:10157000206B487A2C252E31662025250D0A000087
:101580002C00000000A00C47000020410004004097
:101590003C543E0D0A0000003C463E0D0A0000008F
:1015A000C40000202564206F686D0D0A0000000053
:1015B00038000020256620760D0A00003C0000203F
:1015C0000000A0410000FA4329000020280000206C
:1015D0002564202C2564200D0A0000003C42414473
:1015E000434F4D4D414E443E0D0A00000C03002078
:1015F000C2000020014606E0002002E000BF421CBD
:10160000D0B22428FADB0A00A1F1010399B2F3D188
:10161000704708B50121082001F000FAC020ADF89C
:10162000000003208DF8020010208DF803006946A9
:10163000454801F005F94021434801F07CF980213B
:10164000414801F078F908BD10B540213E4801F04D
:1016500074F980213C4801F070F90220FFF7CAFFBD
:101660008021394801F067F90120FFF7C3FF10BD61
:1016700010B54021344801F060F98021324801F072
:101680005AF90220FFF7B6FF80212F4801F055F9E3
:101690000120FFF7AFFF10BD10B580212A4801F0EF
:1016A0004AF94021284801F046F90220FFF7A2FF3D
:1016B0004021254801F041F90120FFF79BFF40211F
:1016C000214801F038F910BD70B5044640211E488C
:1016D00001F031F900251DE014F0800F04D08021C5
:1016E000194801F02AF903E08021174801F023F995
:1016F0006006040E0220FFF77DFF4021124801F032
:101700001CF90120FFF776FF40210F4801F013F983
:10171000681CC5B2082DDFDB70BD10B50446FFF7AD
:1017200093FF5820FFF7D0FFFFF7B6FF0020FFF729
:10173000CBFFFFF7B1FF2046FFF7C6FFFFF7ACFF77
:10174000FFF796FF10BD0000000C014030B50546C4
:101750002A460B4612F8010B13F8014B08B1A042C0
:10176000F8D01CB1002802D06D1CF1E7284630BD2E
:1017700070B5064601F064FB046805460A220021A4
:10178000304600F0C3FB2C6070BDF0B480EA01026B
:10179000D40F4200B2EB410F02D202460846114676
:1017A0004A0042D0C30DDDB2C1F3C752AD1A202D9D
:1017B00035DAC1F3160141F4000204B15242C5F119
:1017C000200602FA06F12A411044B3EBD05F23D081
:1017D000C4B1012DA0EBC35009DCF0BC4FF00042B6
:1017E00002EAC35200F50000DBB200F0D0BB4000BB
:1017F00000F1807000EBC350A0F1807040EAD1701E
:10180000490009E0490841EAC071A0EBC35000F566
:101810000000400800EBC350F0BC00F0AFBB6142D9
:10182000012202EB4101001BF6E7F0BC704781F09A
:101830000041AAE780F00040A7E780EA010210B566
:1018400002F00043400026D04A0023D04FEA106146
:1018500001EB1261C0F35600C2F3560240F40000DF
:1018600042F40002A0FB0220A1F17F014FEA0040F8
:10187000140401D000F1010050EA124001D44000EC
:10188000491EC2B20C0604EBD010401C4008802A4E
:1018900002D003E0002010BD20F00100002900DA92
:1018A0000020184310BD30B480EA010202F0004568
:1018B00030F0004221F0004015D0A0B1C0F3C75372
:1018C000C2F3C754C2F31601C0F31600E41A41F480
:1018D000000140F400027D34914201D3641C00E019
:1018E0004900002C02DA30BC002070474FF40000A1
:1018F0000023914201D3891A034340084FEA410172
:10190000F7D151B1914202D14FF0004105E002D22E
:101910004FF0010101E06FF0010103EBC4502844D6
:1019200030BC00F02BBB2DE9FE4F804681EA03005E
:10193000C00F0C46009021F0004123F00045B8EBA9
:101940000200A94105D24046214690461C460B465E
:10195000024623F00040104304D14046214603B024
:10196000BDE8F08F270DC7F30A00C3F30A510290B8
:10197000401A0190402866DAC3F3130040F4801B3C
:101980000098924620B10023D2EB030A63EB0B0BC5
:1019900001985946C0F14002504600F038FA064618
:1019A0000D4650465946019A00F050FA10EB0800D7
:1019B0006141002487EA115284EAE7731A433BD05D
:1019C000009A3AB3019A012A4FEA075210DC001B31
:1019D00061EB02014FF0004202EA0752CDE90042FA
:1019E000001C41F5801132462B4600F00AFBB6E799
:1019F000001B61EB0201001C41F5801300185B41E4
:101A00002018A2F5001747EB030140EAD570B6197C
:101A10006D4111E06D084FEA360645EAC0754FEAA0
:101A20000752001B61EB0201001C41F580114908BF
:101A30004FEA30000019514132462B4603B0BDE851
:101A4000F04F00F0D1BA0098012240000023D0EB03
:101A5000020263EBE073009821464FEAE074B8EBB2
:101A6000000061EB0401E9E783F000435BE781F0EC
:101A7000004158E72DE9FE4F81EA030404F00044D9
:101A800021F0004100944FF0000B23F0004350EA96
:101A9000010402D052EA030404D10020014603B03D
:101AA000BDE8F08FC3F30A54C1F30A552C44A4F2E5
:101AB000F3340194A0FB0254C1F3130141F48011EB
:101AC000C3F3130343F4801301FB024400FB034EF2
:101AD000840A970A44EA815447EA8357A4FB0768BB
:101AE00002958D0A05FB07854FEA932C04FB0C54E5
:101AF0002705029D4FEA065847EA1637B5EB080559
:101B00006EEB070C870E920E47EA811742EA8312AA
:101B1000A7FB0201B6EB0B0164EB00042B0D43EABB
:101B20000C335E1844EB1C50DA465146E7FB0201C9
:101B3000C5F313044FEA0B3343EA14534FEA04325C
:101B4000019C43EA0603A4F10C040294009CCDE935
:101B500000B400F056FAA2E72DE9F04D81EA030443
:101B600004F0004B21F0004514464FF0000A23F02A
:101B7000004150EA050220D054EA01021DD0C5F30D
:101B80000A570246C5F31303C1F31300C1F30A5603
:101B900040F4801543F48013A7EB0608101BD646CB
:101BA00008F2FD3873EB050002D308F1010801E0EB
:101BB00092185B41B8F1000F03DA00200146BDE83E
:101BC000F08D00204FF48011064684460EE0171B6E
:101BD00073EB050705D3121B63EB050306434CEAC1
:101BE000010C49084FEA300092185B4150EA0107A6
:101BF000EDD152EA030012D082EA040083EA050123
:101C0000084303D100224FF0004308E0101BAB4112
:101C100002D20122002302E06FF0010253101AEBFE
:101C200006004CEB085110EB0A0041EB0B01BDE83C
:101C3000F04D00F0D9B9C10F80EAE0700844CA073E
:101C40009623002100F0A3B996230022114600F04C
:101C50009EB90EB540F2334102910021CDE9001149
:101C60000A460B4600F0CDF903B000BD00F000427B
:101C700020F00040C10DC0F3160040F400007F29A1
:101C800001DA00207047962903DCC1F19601C840B3
:101C900001E096398840002AF4D04042704720F095
:101CA0000040C10DC0F3160040F400007F2901DAA6
:101CB00000207047962903DCC1F19601C8407047A7
:101CC000963988407047C1F30A5210B5C1F3130129
:101CD00040F2FF3341F480119A4201DA002010BD36
:101CE00040F233439A42A2F2334203DC524200F004
:101CF0009DF810BD904010BD00F0004230F0004053
:101D00000AD0C10D01F56071C0F3160042EA01511D
:101D1000C20840071143704700200146704701F098
:101D2000004330B421F0004150EA010206D00A0D10
:101D3000A2F56072C1F31301002A02DC30BC00205E
:101D40007047440F44EAC104C100E01830BC00EB06
:101D5000C25000F013B90000002801DBC0F10040C0
:101D6000002901DBC1F1004181427047002801DBFD
:101D7000C0F10040002901DBC1F1004188427047F9
:101D800030B50B46014600202022012409E021FA4B
:101D900002F59D4205D303FA02F5491B04FA02F548
:101DA0002844151EA2F10102F1DC30BD2DE9F05FDF
:101DB0000546002092469B468846064681464024BA
:101DC0001BE0284641464746224600F02FF853467E
:101DD0005A46C01A914110D311461846224600F0C7
:101DE00016F82D1A67EB01084F4622460120002104
:101DF00000F00DF817EB00094E41201EA4F101047C
:101E0000DFDC484631462A464346BDE8F09F202A9B
:101E100004DB203A00FA02F1002070479140C2F141
:101E2000200320FA03F3194390407047202A04DB73
:101E3000203A21FA02F00021704721FA02F3D04043
:101E4000C2F120029140084319467047202A06DB60
:101E5000CB17203A41FA02F043EAE07306E041FA78
:101E600002F3D040C2F12002914008431946704766
:101E70000FB4002300B589B00CA900910B996FF045
:101E80000042CB601E4B06931E4B07930423CDE903
:101E900001321D4A089202466B46002000F0D0F93C
:101EA00009B05DF814FB70B586B006464FF0FF3000
:101EB0000091CDE90101002015460C460490324600
:101EC000694604A8FFF7D4FF03460498211825B1FA
:101ED00008B10A4600E022462A6000280DD0002BF7
:101EE00002DD0098884208D0081B0094CDE9010467
:101EF0003246694604A8FFF7BBFF06B070BD00007C
:101F00007D2400089B2400082D2100082DE9F047BE
:101F100091460F4680460446002614F8015B2DB119
:101F200000F000F90068405DC007F6D12B2D02D00B
:101F30002D2D18D0641E4A463946204600F0BEFAC0
:101F400027B13968A14201D1C7F8008071054FF06F
:101F500002040BD54042002803DD00F071FF04604D
:101F6000A007BDE8F08746F48066E4E70028F8DAC9
:101F700000F066FF04606FF00040F2E70029A8BFA0
:101F80007047401C490008BF20F00100704710B4A2
:101F9000B0FA80FC00FA0CF050EA010404BF10BC57
:101FA000704749B1CCF1200421FA04F411FA0CF184
:101FB00018BF012121430843A3EB0C01CB1D0106EF
:101FC000000A002BBEBF002010BC704700EBC350BE
:101FD00010440029A4BF10BC7047401C490008BF32
:101FE00020F0010010BC704710B5002B08DA401C2F
:101FF00041F1000192185B411A4301D120F0010028
:1020000010BD2DE9F04D92469B4611B1B1FA81F217
:1020100002E0B0FA80F220329046FFF7F8FE044664
:102020000F4640EA0A0041EA0B0153465A4608436C
:1020300003D120463946BDE8F08D114653EA010030
:1020400015D0C8F140025046FFF7F0FE05460E4697
:10205000504659464246FFF7DAFE084301D00120B8
:1020600000E00020054346EAE0762C4337430A9817
:102070004FEA4453A0EB08004FEAD4240A304FF053
:10208000000244EA47544FEAD72502D50020014612
:10209000D1E7010510196941DDE9084500196941D9
:1020A000BDE8F04DA0E7C1F30A52C1F3130140F2BD
:1020B000FF3341F480119A4202DA00200146704752
:1020C00040F233439A42A2F2334202DC5242FFF71B
:1020D000ADBEFFF79CBE000030B5002904DB4FF019
:1020E0000044404264EB0101002B04DB4FF000444C
:1020F000524264EB0303994208BF904230BD000096
:10210000064C074D06E0E06840F0010394E8070044
:1021100098471034AC42F6D3FDF7ECFFF8370008CF
:102120001838000800487047F437000810B5044616
:10213000FFF7F8FF0068005D00F0010010BD00002F
:102140002DE9FF4F087881B09946FF2805D0491C3A
:102150002D2804D00024002308E000230BE00124F4
:10216000F9E703EB830300EB4303491C0878FF28DE
:10217000F7D104B15B4200200090147801462D2C69
:1021800001D02B2C04D1521C2D2C12D000240094F1
:1021900000251678FF2E0ED00A24A0FB04C801FBF0
:1021A0000481002700FB0711521C16EB0C0069414B
:1021B000EFE70124EBE7994450EA010206D10198C8
:1021C0000021C0E9001105B0BDE8F08F0024A84D42
:1021D0002646DFF8A08200F0CEF982468B46B9F1A0
:1021E000000002DAC9F1000714E0074612E0F80720
:1021F00007D022462B4630464146FFF73BFC0646B9
:10220000884622462B4610461946FFF733FC044603
:102210000D467F10002FEAD1B9F1000F3246434638
:102220005046594602DAFFF797FC01E0FFF722FC1F
:10223000009A0AB181F00041019AC2E90001C2E7A7
:102240002DE9FF4F1F468DB0D7E901464FF0FF380B
:102250002E2045464FF000090B90B9696D1C0E9871
:102260008847396A824688470028F6D11AF101006A
:102270000AD024F4D064002E12DDBAF12B0F08D05E
:10228000BAF12D0F0CD102E0404611B09CE744F4A6
:102290008064B9696D1C0E9888478246A6F10106D4
:1022A0006946600501D52D2000E02B208DF8000047
:1022B00001F1010B0DF1200809E0B9696D1C0E98C0
:1022C000884782460F98761E44F400740560002EFD
:1022D00002DDBAF1300FF0D00B998A453ED144F0BF
:1022E000800406E00F99681CA9F1010944F4007408
:1022F0000860761EB9696D1C0E98884782463028A2
:10230000F0D02BE00B998A4505D1200603D444F088
:102310008004761E18E0504600F060FE08B3761E7A
:102320000DF1130144F400748B4508D2AAF130007A
:102330000BF8010B200607D5A9F1010003E02006E8
:1023400002D409F101008146A00502D50F99681C4D
:102350000860B9696D1C0E9888478246002ED1DC52
:1023600054E0002E52DDBAF1650F02D0BAF1450FEC
:102370004CD1A0054AD5761EB96924F440746D1C71
:102380000E9888478246002E0DDD2B2804D0BAF126
:102390002D0F08D144F48074B9696D1C0E988847DC
:1023A0008246A6F10106E00501D52D2100E02B2192
:1023B00008F8011BCDF82C8021E0761E0DF12901D3
:1023C00044F4007488450CD2AAF1300010F0FF00EC
:1023D00088F8000002D10B99884509D908F1010855
:1023E00006E0E00501D5244801E042F20F70814685
:1023F000B9696D1C0E98884782460F980560002EBB
:1024000004DD504600F0EAFD0028D6D1F9690E98A7
:102410008847FF208BF8000088F800000020069015
:1024200007904B466A4608A906A8FFF789FEA00553
:1024300002D46FF0010028E714F0240F0AD0E0075F
:1024400014D1DDE906123868031D3B600068C0E95D
:1024500000120BE0DDE90601FFF761FC0146E00731
:1024600004D13868021D3A600068016028460CE714
:10247000000024400000F03FF1D8FFFF426842B165
:10248000016811F8013B23B1521EC0E90012184641
:1024900070470121C160881E704742685AB1C36805
:1024A000016843B983688B4205D0491E521CC0E9BC
:1024B0000012002070474FF0FF3070472DE9F05FA9
:1024C00082460078002715468B460AF10104B9467A
:1024D000302801D09DB113E014F8010B01277828B2
:1024E00003D0582801D045B10AE00DB1102D07D115
:1024F0000027102514F8010B02E0082500E00A254A
:102500000026B0460EE005FB080005FB06F101279A
:1025100001EB10461FFA80F8B6F5803F00D3B946AC
:1025200014F8010B294600F018F80028EBDABBF18B
:10253000000F05D00FB1641E00E05446CBF80040F8
:10254000B9F1000F06D000F07BFC02210160C81E2B
:10255000BDE8F09F48EA0640FAE73A2800D2303852
:1025600020F02002412A01D3A2F13700884201D392
:102570004FF0FF3070470EB540F233420292002216
:10258000CDE900221346FFF73CFD03B000BD002952
:10259000816802D041F0010101E021F00101816078
:1025A00070470029816802D041F4807101E021F474
:1025B000807181607047014689680020490700D515
:1025C00001207047014689680020090700D50120D5
:1025D0007047000030B542680E4B0C791A400B680A
:1025E00042EA04221343436082680B4B4D791A4040
:1025F000D1E9024342EA4502234313438360C26A9E
:10260000097C22F47002491EC9B242EA0151C1623A
:1026100030BD0000FFFEF0FFFDF7F1FF70B50726AB
:1026200009290AD9C568A1F10A0404EB4404A640AB
:10263000B543A3401D43C56007E0056901EB4104B4
:10264000A640B543A3401D4305611F23072A09D2B5
:10265000446B521E02EB820293409C4391400C4318
:10266000446370BD0D2A09D2046BD21F02EB8202B3
:1026700093409C4391400C43046370BDC46A0D3A7F
:1026800002EB820293409C4391400C43C46270BDB4
:10269000816841F00801816070470029816802D09B
:1026A00041F4A00101E021F4A0018160704781683C
:1026B00041F00401816070470029016802D041F0B7
:1026C000010101E021F00101016070470268002171
:1026D00022F001020260016041608160C160304B04
:1026E0002F49C21A8039984245D018DC2D4BA0EBF7
:1026F0000302984237D00ADC2B4A80182BD01428CA
:102700002DD0282826D1486840F4706036E0142A7D
:102710002DD0282A1ED1486840F470002EE0B2F572
:102720006C7F32D00ADCB2F5627F29D0B2F5677FC8
:1027300010D1D1F8040440F0F00009E0B2F5717F47
:1027400028D0B2F5767F05D1D1F8040440F470208A
:10275000C1F804047047486840F00F000EE0486874
:1027600040F0F0000AE0486840F4704006E0486835
:1027700040F4702002E0486840F0706048607047A4
:10278000D1F8040440F00F00E2E7D1F8040440F46B
:102790007060DDE7D1F8040440F47040D8E7000031
:1027A0008000024044000240F8FFFDBF70B502689F
:1027B00047F6F0739A430E6A8B680C693343D1E98C
:1027C00005562C432343CC6933432343D1E90954B1
:1027D0002B43234313430360CA6842600A68826044
:1027E0004968C16070BD0000014908607047000081
:1027F00014040140054B01461A6800205B690A4039
:102800000B4202D0002A00D0012070470004014092
:1028100004490A6822F010020A600A6802430A604A
:10282000704700000020024004490A6802F03802A4
:102830000A600A6802430A607047000000200240F4
:10284000F0B5CB780022DC0603F00F0301D58C78BD
:1028500023430C880F2714F0FF0F4FF0010C1CD0FE
:10286000D0F800500E880CFA02F42640A64210D18F
:10287000960007FA06FE25EA0E0E03FA06F5CE7854
:1028800045EA0E05282E00D14461CE78482E00D1AD
:102890000461521C082AE5D305600A88FF2A1ED964
:1028A0004568002202F108060CFA06F40E8826405C
:1028B000A64210D1960007FA06FE25EA0E0E03FA8C
:1028C00006F5CE7845EA0E05282E00D14461CE7873
:1028D000482E00D10461521C082AE3D34560F0BDA4
:1028E000F0B5104D6B68440D260184B2C0F301575A
:1028F000B440C0F30342032F06D1686823F070622E
:1029000020F07060686008E0C00203D503209040AA
:10291000834300E0A34343F0706201B122436A6045
:10292000F0BD0000000001400246926800200A420B
:1029300000D001207047416170470161704700007D
:1029400002494AF6AA2008607047000000300040A3
:10295000F0B50F23C27801784FF0E024012742B38D
:10296000D4F80C2D467802F4E062C2F5E062120A57
:10297000C2F10405D3408278AE401A4032431501BB
:102980008A07D20E954021F003010B19D3F8006499
:10299000FF2191408E430D402E43C3F80064007820
:1029A000410900F01F0004EB81018740C1F800716C
:1029B000F0BD01F01F008740480904EB8000C0F81B
:1029C0008071F0BD02490843024908607047000069
:1029D0000000FA050CED00E0034A516821F4404183
:1029E000014351607047000000100240044A002972
:1029F000516901D0014300E08143516170470000FB
:102A000000100240044A0029D16901D0014300E0CE
:102A10008143D1617047000000100240044A002940
:102A2000916901D0014300E081439161704700004A
:102A3000001002400B48016841F00101016041684B
:102A4000094A114041600168084A1140016001686B
:102A500021F4802101604268002122F4FE024260DC
:102A600081607047001002400000FFF8FFFFF6FE93
:102A700030B5204A5168204B11F00C0103D00429D5
:102A800001D0082901D0036011E05168022401F44B
:102A9000701104EB91415468184D14F4803F02D03A
:102AA0005468A40301D5694300E0594301605168AB
:102AB000134B01F0F00109095C5C0168E1404160E1
:102AC000546804F4E064240A1C5D21FA04F4846070
:102AD000546804F46054E40A1B5DD940C160526834
:102AE000074B02F44042920B1B1F9A5CB1FBF2F1C0
:102AF000016130BD0010024000127A0000093D0063
:102B000060370008034600205909094A012901D10C
:102B1000116804E0022901D1116A00E0516A03F052
:102B20001F02012393400B4200D001207047000098
:102B3000001002400248406800F00C00704700009E
:102B400000100240034A516821F0F0010143516036
:102B50007047000000100240034A516821F4E06110
:102B6000014351607047000000100240034A516861
:102B700021F4605141EAC0005060704700100240EB
:102B8000014908667047000000004242034B5A6842
:102B9000084322F47C121043586070470010024032
:102BA000034A516821F0030101435160704700005E
:102BB00000100240024A11888143118070470000D2
:102BC00004280040054A918812880140C9B2024297
:102BD00002D009B101207047002070470028004052
:102BE0000029018802D041F0800102E040F27F32EA
:102BF000114001807047C943018270470029018854
:102C000002D041F0010102E040F2FE3211400180A9
:102C10007047002A828901D00A4300E08A438281FA
:102C20007047000070B5028C22F480720284058C1B
:102C30008388828B0C8822F070020E89144325F45D
:102C40000075320645EA12464A88CD88120646EAE1
:102C50001242104E8587B04202D00F4DA84215D1C6
:102C600022F400654A8923F43043120645EA1242F1
:102C700022F480658A88120645EA12428D89C98944
:102C80002D0543EA1545090545EA114383808483F0
:102C9000028470BD002C014000340140828B22F080
:102CA00008020A4382837047018770478187704713
:102CB00010B5028802F08F020280CA884B8804880F
:102CC0001A43224302808A88064C012382850A889F
:102CD000A0420285838202D0034A904201D1097A40
:102CE000018610BD002C0140003401400A0A012178
:102CF0009140C943018070470029818902D041F485
:102D0000005101E021F40051818170470246128890
:102D100000200A4200D00120704770B501F01F0565
:102D200001260024C1F3421306FA05F2012B01D15A
:102D3000838904E0022B01D1038A00E0838A4FEAF1
:102D400011210088134206FA01F600EA060001D0BC
:102D500000B10124204670BD10B5C1F3421301F04B
:102D60001F040121A140012B01D10C3004E0022BF2
:102D700001D1103000E01430002A026801D00A436B
:102D800000E08A43026010BD30B50446008A85B079
:102D90000D464CF6FF710840E98801432182A08965
:102DA0004EF6F3110840A9882A8911436A89024323
:102DB0001143A181A08A4FF6FF410840A989014330
:102DC000A1826846FFF754FE1048844201D103985F
:102DD00000E0029819214843296864228900B0FB69
:102DE000F1F0B0FBF2F109010B096FF018056B432C
:102DF000322500EB830005EB0010B0FBF2F000F091
:102E00000F000843208105B030BD000000380140AC
:102E10008088C0F308007047C1F3080181807047C3
:102E20000FB4054B10B503A9044A029800F0DEF870
:102E300010BC5DF814FB00000B0B0008C80000205C
:102E400000487047CC00002001480068704700002F
:102E5000CC00002002E008C8121F08C1002AFAD1E5
:102E600070477047002001E001C1121F002AFBD10A
:102E7000704700000149086070470000CC00002046
:102E80002DE9FF5FDDE90220010DDDF838B00243D6
:102E900010D10F9801244CA2012808D000210098DD
:102EA0000F9BC0E90021C0E90243BDE8FF9F6FEA24
:102EB0000B01F4E7A1F2FF3144F6105041430D1429
:102EC0000F9801280ED0A5EB0B00401C4FF000041A
:102ED0003E4EDFF8FC90B0F1000AA04605DACAF1D8
:102EE000000717E0CBF10000F0E7074612E0F80713
:102EF00007D02246334640464946FEF7BBFD804692
:102F000089462246334610461946FEF7B3FD04466D
:102F10000E467F10002FEAD1DDE90201BAF1000F61
:102F200042464B4602DAFEF7A5FD01E0FEF714FE2D
:102F300004460E460022274BFFF7CEF803D84FF089
:102F4000FF30014607E00022234B20463146FEF7C2
:102F5000EAFCFFF7A8F8102409E0002C0ADB0A229B
:102F60000023FEF723FF019B30321A55641E50EAFE
:102F70000102F2D1641C019AC4F1110314440F9AA6
:102F8000012A09D00122084301D15B450FDD4FF032
:102F9000000205F101050DE0084303D1A3EB0B0589
:102FA0006D1E09E000204FF0110B0F9088E701DA49
:102FB00000226D1E002A83D000980F99C0E90231CB
:102FC000C0E9004571E70000300000000000244027
:102FD0000000F03F0000F0430000E03F30380A28D6
:102FE00001D2012070470020704700002DE9FF4FFB
:102FF00095B09B4689460646002512E2252878D1E1
:103000000024761CF94A2746012105943378203B99
:1030100001FA03F0104202D00443761CF6E7307840
:103020002A2811D06FF02F033078A0F13002092A3E
:1030300016D8059A44F0020402EB820203EB420226
:103040001044761C0590EFE759F8042B0592002AEE
:1030500003DA504244F40054059044F00204761C14
:1030600030782E2816D116F8010F44F004042A28CF
:103070000DD06FF02F023078A0F13003092B09D862
:1030800007EB870302EB4303C718761CF3E759F8F5
:10309000047B761C30786C280FD006DC4C2817D0C7
:1030A00068280DD06A2814D104E0742810D07A283A
:1030B0000FD10DE044F400140AE044F4801401E060
:1030C00044F440147278824202D1761C04F58014D4
:1030D000761C307866280BD013DC582877D009DCB2
:1030E000002875D04528F6D04628F4D047281AD1B4
:1030F0009FE118E0632835D0642879D0652812D183
:1031000097E1702873D008DC6728F1D069286FD068
:103110006E280DD06F2806D1B5E073282CD0752805
:1031200075D0782874D05A46179990476D1C76E16F
:10313000C4F30250022809D003280DD0D9F800109A
:1031400004280DD00D6009F1040968E1D9F80010D8
:10315000EA17C1E90052F6E7D9F800100D80F2E74E
:103160000D70F0E719F8041B8DF8001000208DF8A1
:103170000100EA46012003E059F804AB4FF0FF30AC
:1031800061074FF0000102D40DE008F1010188460B
:10319000B9420FDA8045F8DB1AF808100029F4D19B
:1031A00008E008F1010188468142FADB1AF80810AC
:1031B0000029F6D105985B46A0EB08072146384662
:1031C000179A00F09EFA284400EB080507E04DE04E
:1031D0002BE10DE01AF8010B5A4617999047B8F108
:1031E0000108F7D25B4621463846179A14E142E0BF
:1031F0000A220092C4F302524FF0000A022A08D0B9
:1032000059F804CB032A4FEAEC710AD00DE029E00B
:103210002AE009F1070121F00702F2E802C1914614
:1032200009E00FFA8CFC4FEAEC71042A03D14FFA43
:103230008CFC4FEAEC71002907DA0A460021DCF128
:10324000000C61EB02012D2202E0220504D52B22A5
:103250008DF80420012203E0E20701D02022F7E7E5
:10326000904653E00A2102E010220DE010214FF0B9
:10327000000A00910BE010224FF0000A44F0040411
:103280000827009203E008224FF0000A0092C4F3DE
:103290000252022A05D059F804CB0021032A08D093
:1032A00009E009F1070121F00702F2E802C19146A5
:1032B00005E01FFA8CFC042A01D10CF0FF0C4FF042
:1032C0000008220722D5702827D0009B83F0100326
:1032D00053EA0A0309D15CEA010206D030228DF8D4
:1032E00004208DF8050002229046009B83F008031D
:1032F00053EA0A030AD15CEA010201D1620705D54B
:1033000030228DF804204FF001087F1E582809D084
:1033100037A003900EA8029013E040228DF80420FD
:103320000122E1E737A0F4E753466046009AFEF732
:103330003DFD84460398825C0298A0F10100029052
:1033400002705CEA0100EFD1029806A9A1EB00002F
:1033500000F1200A600702D524F4803400E0012740
:10336000574502DDA7EB0A0000E0002000EB0A0150
:10337000009005984144A0EB01000590E00306D4BD
:103380005B462146179A059800F0BBF905440027D3
:1033900006E001A85A46C05D179990476D1C7F1C36
:1033A0004745F6DBE0030CD55B462146179A0598A6
:1033B00000F0A7F9054404E030205A4617999047D9
:1033C0006D1C0099481E00900029F5DC08E0029869
:1033D00002995A460078491C0291179990476D1C32
:1033E000BAF10001AAF1010AF1DC6BE10928010040
:1033F000303132333435363738396162636465666B
:10340000000000003031323334353637383941422C
:10341000434445460000000000F060F9054406F111
:103420000106307800287FF4E9AD19B02846BDE8E0
:10343000F08F620700D4062709F1070222F0070C7B
:10344000FCE80223E14603F000485FEA080C02D0E2
:103450000FF27C2C0DE05FEA045C02D50FF2742CB5
:1034600007E05FEAC47C02D00FF26C2C01E0AFF2FF
:10347000700C4FF0FF3823F00043CDF850C06528A2
:103480000CD006DC452809D046281DD047283ED15F
:103490003EE0662818D0672839D139E00021112F85
:1034A00001DB112000E0781CCDE9000106A90EA87F
:1034B000FFF7E6FCDDE90F010E9A0391002100926F
:1034C00007F1010A04914EE04FF000400097CDE96A
:1034D000011006A90EA8FFF7D3FCDDE90F02039245
:1034E0000E9B11990022DDF80CA00093049219B9EB
:1034F00007F1010100EB010AB7EB0A0004D4C0F1A7
:10350000FF3007F1010A0490AAEB0700019046E0A2
:10351000012F00DA01270021112F01DD112000E029
:103520003846CDE9000106A90EA8FFF7A9FCDDE9A0
:103530000F010E9A0391002104910092BA462107CF
:103540000CD40399514500DA8A46BAF1010F05DD22
:10355000009AAAF10101515C302908D0B84202DA80
:1035600010F1040F06DA0121CDE9011017E0AAF1EC
:103570000101E9E7002805DC049901440491AAEB64
:10358000000102E0411C514500DD8A460499A0EB90
:10359000010000F1010001904FF00040029020076F
:1035A00004D40198504501DBCDF8048000208DF84B
:1035B0004F0002980DF14F07B0F1004F25D02B209E
:1035C0000E9002984FF0020800280CDA4042029058
:1035D0002D200E9007E00A210298FEF7D1FB303132
:1035E000029007F8011DB8F10001A8F10108F2DC12
:1035F00002980028EFD1791E0E980870307800F0FC
:10360000200040F0450007F8020D12A8A0EB0700CB
:1036100000F107081498007800B1012000EB0A01BE
:10362000019801EBE07105984144A0EB0100A0F185
:1036300001000590E00306D45B462146179A0598E1
:1036400000F05FF805441498007820B15A461799A5
:10365000904705F10105E00323D55B462146179A03
:10366000059800F04EF805441BE00498002807DB9D
:10367000DDE90301884203DD0098405C179901E011
:10368000179930205A46904704986D1C401C0490AE
:103690000198401E019004D12E205A461799904758
:1036A0006D1CBAF10001AAF1010ADEDC05E017F891
:1036B000010B5A46179990476D1CB8F10001A8F10B
:1036C0000108F4DC5B462146179A0598A4E6000041
:1036D0002D0000002B000000200000002DE9F0412B
:1036E000044600251E461746880405D406E03946E0
:1036F0002020B04705F10105641EF8D52846BDE835
:10370000F0812DE9F041044600251E469046C8038D
:1037100001D5302700E02027880405D506E0414682
:103720003846B04705F10105641EF8D52846BDE8C6
:10373000F08130B583B004460020CDE90000FFF7EA
:1037400083FB0546002221466846FEF7ACFB28466F
:10375000FFF790FBDDE9000103B030BD020406086D
:103760000000000001020304010203040607080927
:103770000040404040404040404041414141414084
:103780004040404040404040404040404040404039
:1037900040050202020202020202020202020202C8
:1037A00002202020202020202020200202020202CD
:1037B0000202909090909090101010101010101025
:1037C0001010101010101010101010100202020231
:1037D0000202888888888888080808080808080875
:1037E0000808080808080808080808080202020271
:1037F0004000000071370008183800080000002061
:10380000D0000000542E0008E8380008D000002046
:1038100040130000642E0008323031392D30352D30
:1038200031342066726F7A656E20736F696C206424
:10383000617461206C6F676765722056312E3000AD
:10384000047E0000000000000000000000000000F6
:103850000000C844000020410000000000000000FB
:103860000000000000000000000000000000000058
:103870000000000000000000000000000000000048
:1038800000000000000000000000000000004845AB
:103890004C50000000000000000050574D00000098
:1038A000000000000000524553495354414E434527
:1038B0000000564F4C54414745000000000047416E
:1038C000494E000000000000000054485245534893
:1038D0004F4C440000000000000000000000000009
:0838E0000000000000000000E0
:04000005080000ED02
:00000001FF
